:020000040800F2
:10000000A80800200D0200085F0300085B03000839
:100010005D030008570300081504000800000000F5
:10002000000000000000000000000000A303000822
:100030005903000800000000A1030008A503000800
:1000400027020008270200082702000827020008EC
:1000500027020008270200082702000827020008DC
:1000600027020008270200082702000827020008CC
:1000700027020008270200082702000827020008BC
:1000800027020008270200082702000827020008AC
:10009000270200082702000827020008270200089C
:1000A000270200082702000827020008270200088C
:1000B000270200082702000827020008270200087C
:1000C000270200082702000827020008270200086C
:1000D000270200082702000827020008270200085C
:1000E000270200082702000827020008000000007D
:1000F0000000000000000000000000000000000000
:10010000000000002702000827020008000000008D
:10011000270200082702000800000000000000007D
:10012000270200082702000827020008270200080B
:1001300000000000000000000000000000000000BF
:10014000000000000000000000000000270200087E
:10015000000000000000000027020008270200083D
:10016000000000000000000000000000270200085E
:1001700000F002F800F03AF80AA090E8000C82447F
:100180008344AAF10107DA4501D100F02FF8AFF25C
:10019000090EBAE80F0013F0010F18BFFB1A43F065
:1001A00001031847600D0000800D0000103A24BFC5
:1001B00078C878C1FAD8520724BF30C830C144BFCC
:1001C00004680C607047000000230024002500260E
:1001D000103A28BF78C1FBD8520728BF30C148BFAA
:1001E0000B6070471FB51FBD10B510BD00F07AF849
:1001F0001146FFF7F7FF00F045FC00F098F803B454
:10020000FFF7F2FF03BC00F09FF8000009488047A9
:1002100009480047FEE7FEE7FEE7FEE7FEE7FEE7E8
:10022000FEE7FEE7FEE7FEE704480549054A064B00
:1002300070470000A903000871010008A80200200F
:10024000A8080020A8040020A80400204FF0000205
:100250000429C0F0128010F0030C00F01B80CCF1D8
:10026000040CBCF1020F18BF00F8012BA8BF20F846
:10027000022BA1EB0C0100F00DB85FEAC17C24BF9A
:1002800000F8012B00F8012B48BF00F8012B704744
:100290004FF0000200B5134694469646203922BF1F
:1002A000A0E80C50A0E80C50B1F12001BFF4F7AF6A
:1002B000090728BFA0E80C5048BF0CC05DF804EB4C
:1002C000890028BF40F8042B08BF704748BF20F8BA
:1002D000022B11F0804F18BF00F8012B70477047B8
:1002E00070477047754600F02BF8AE46050069462A
:1002F000534620F00700854618B020B5FFF794FF5D
:10030000BDE820404FF000064FF000074FF0000816
:100310004FF0000BAC46ACE8C009ACE8C009ACE853
:10032000C009ACE8C00921F007018D46704710B53F
:100330000446AFF300802046BDE81040FFF75FBFE2
:10034000004870471800002001491820ABBEFEE7A6
:10035000260002007047FEE77047FEE7FEE77047A1
:100360004FF4FA704FF4FA7600F086BA206840F045
:10037000400020604FF0804000F0A6BAB0812046D7
:1003800000F04AB84FF4801000F09EBA216821F0C6
:100390000101216010BD226842F001022260704715
:1003A00070477047704700009A48C16941F080511A
:1003B000C16116490A7842F004020A70C16921F04D
:1003C0008051C161016841F0010101600168890744
:1003D000FCD5416821F003014160416811F00C0F28
:1003E000FBD101688C4A114001600021416041F657
:1003F0001071C1624FF4801101634FF41F018160DD
:1004000003484FF000610160704700BF507000402A
:1004100008ED00E0FEE70000B0B54218445C5578F6
:1004200000F0B4FB0448017940796840614008431A
:10043000B0FA80F04009B0BD7800002070B500200F
:100440001821102200F0CEFAFFF78AFF154C164D46
:1004500056B12068C00602D42888013028800A20BE
:1004600000F00AFA013EF3E72888D0B10020042109
:1004700010222880002000F0B5FAFFF771FF56B176
:100480002068C00602D42888013028800A2000F0A5
:10049000F3F9013EF3E7288818B1BDE8704000F099
:1004A000D3BA70BD080C01409C000020614900F0E7
:1004B0000F000A6822F0F00242EA0010086070475C
:1004C0005C4900F007000A6822F4E06242EA00207A
:1004D00008607047574900F007000A6822F460522C
:1004E00042EAC02008607047044901280A6822F0E7
:1004F000300208BF30320A60704700BF541002401B
:10050000042828D8DFE800F00309121C2200414823
:10051000026861F300020260704701F001003D498A
:100520000A6822F4803242EA004007E001F001004C
:1005300038490A6822F0807242EA00600860704719
:100540003448026A61F30002026270473148426A2D
:1005500061F30002426270472E4A010C00F01F0056
:10056000895821FA00F000F00100704700F01F02E6
:100570000123000C9340274A0129815814BF994355
:1005800019438150704700BF2A4A136868B143F489
:10059000803301281360136807BF23F400334FF042
:1005A000007043F40033002002E023F48033002085
:1005B0001360136861F39543C1F30211136013686C
:1005C00061F35E731360916A21F0E0610843906209
:1005D000704700BF0F48016841F0010101600168E8
:1005E0008907FCD5416821F003014160416811F0A1
:1005F0000C0FFBD10168084A1140016000214160E5
:1006000041F61071C1624FF4801101634FF41F0174
:100610008160704700100240FFFFF2FE05490A6842
:1006200060F301020A60704702480068C0F381006D
:10063000704700BF041002402DE9F84F04AF894E07
:10064000F078D8B1884C71892046B181FFF7E4FE7B
:10065000002800F0F580854D4FF480712846FFF7A3
:1006600017FEB08928B114F8011B013805F8011BE9
:10067000F8E700F060FB0020F07028E07A4C20786A
:10068000A17E70617A480160207C7D2806D1207AA5
:100690000D281CD1607A422815D018E0207D7D28D5
:1006A00005D1207B0D2802D1607B42280BD094F825
:1006B00028007D2810D194F820000D280CD194F842
:1006C0002100422808D100F013FB00202075A7F17B
:1006D0000C04A546BDE8F08F6078A178E278084365
:1006E00040EA02017069014310D16520308100F0B9
:1006F0009FFBC12000F07AFB308901303081A7F1E7
:100700000C04A546BDE8F04F00F086BB411E03294E
:1007100016D9FD2829D0FE2835D0FF28E7D1524C24
:1007200004200421FFF72AFE002800F08980002021
:1007300030816088000400BA00F10060306242E05D
:10074000DFE801F00235488502200221B0814648E9
:10075000FFF762FE002873D0326A4648824279D998
:100760007189424800F07AFA2DE002200221B0811E
:100770003D48FFF751FE002862D000F059FBC12030
:1007800000F034FBBBE7384C04200421FFF7F6FDF2
:10079000002855D04FF48070E178F0810120F0708E
:1007A000A078012808BF4FF480717181A7E702206B
:1007B0000221B0812C48FFF72FFE002840D0306A7C
:1007C0002C49884246D9A7F10C04A546BDE8F04F54
:1007D00000F0B1BA244C02200221FFF7CFFD78B31C
:1007E00080206478F08130690130306100F020FBB6
:1007F000002C08BF4FF4807404F10A00E94620F091
:100800000700ADEB0005AD4604F10308284641465C
:10081000FFF71CFD316A2846224600F0D7F928462A
:10082000214600F0B3F9B08830212853281981708F
:100830002846414600F070FA00F0EEFACD4646E751
:10084000A7F10C04A546BDE8F04F00F088BA0120DE
:1008500070704CE7A7F10C04A546BDE8F04F00F01E
:1008600074BA00BF78000020A4010020A00000207E
:1008700034040040FF0F0008034900220A600A68A0
:100880008242FCD3704700BF240400400D49086039
:10089000704700BF2548016841F080010160704742
:1008A00008480168C9071CBF002070470168490754
:1008B00044BF012070470068C0064FF0020058BFD7
:1008C000032070470C20024010B50446FFF7E8FFF4
:1008D0001CB1010601D1013CF8E7002C08BF04203F
:1008E000C0B210BD10B5114C216841F00201216069
:1008F0006060FFF73BFD216821F00201216010BD1F
:100900000248034901600349016070470420024026
:1009100023016745AB89EFCD10B5044CFFF73BFDD4
:100920000160FFF72FFDFFF731BD00BF102002402F
:10093000954A4FF6FF71C0E900127047F0B58B7908
:100940000A88032B0AD05BB94979282913D01829C2
:1009500012BF01F00F01026108210EE000210CE03E
:100960000C79C97903F0080304F0040401F00301D1
:100970002344194401E042610821130616D00023E4
:100980000F240025082D11D022FA05F6F6070AD00B
:10099000076804FA03F627EA0606066001FA03F67A
:1009A00007683E43066004330135EBE7B2F5807F0C
:1009B00017D3120A00230F240025082D11D022FA84
:1009C00005F6F6070AD0476804FA03F627EA060692
:1009D000466001FA03F647683E434660043301353A
:1009E000EBE7F0BDFEB501AF064614460D463846AE
:1009F000FFF79EFF044839468DF80A6001948DF890
:100A00000950FFF79BFFFEBD000C014070B5C0F31D
:100A10000725C0F307424FF0FF3355FAA0F503FA5C
:100A200002F4C5F12005EB40064D2340040EC0B290
:100A300066599040002926EA030318BF0343635117
:100A400070BD00BF000001400C49EFF3108072B68A
:100A5000E3484A6882610A4A1278012A1EBF0021CF
:100A600001817047454A136823F0010313608269CE
:100A7000C261096881F30888C06900470010000856
:100A8000007C000882B0A34D02204FF4AA71686078
:100A90000320686036480160FFF79CFD00200121BB
:100AA000FFF72EFD0120FFF757FD0128FAD10020A6
:100AB0002321FFF769FD02200121FFF721FD192005
:100AC000FFF74AFD0128FAD10020FFF7EFFC0420D0
:100AD000FFF700FD0420FFF7F3FC0120FFF704FD02
:100AE0000220FFF79BFDFFF79FFD0228FBD10020AE
:100AF000FFF7FAFC00F0A6F91E481F4C0121A047A1
:100B00001E4E95200121B0624FF6FF70F0627069B1
:100B100040F001007061306840F00100306018481A
:100B2000A0474FF4C0100121A04716480121FFF74C
:100B30006DFF6C462046FFF7FBFE1020214600901B
:100B40001148019006F58430FFF7F8FEFFF776FCB8
:100B5000002004211022FFF745FF2878A04CE872FE
:100B600000F03EF820896528FAD3FFF76DFFF7E71C
:100B70000020024001001C006D0500080004004038
:100B8000030018000203103000040001F0B50E4A03
:100B90000024002500238B4212D0C55C0026082EBD
:100BA0000AD2C4F34E076C40E40718BF5740ECB2BA
:100BB000013665083C46F2E7A5B201332D0AEAE7A3
:100BC000874845710471F0BD01A0FFFF10B50023F7
:100BD0009342A8BF10BDCC5CC4540133F8E70000B9
:100BE0002DE9F0417E4D1B4C00204FF4817128709F
:100BF00028612046FFF74CFB7A48174E454F804648
:100C000026B300F0B7F8786801307860E87858B11A
:100C1000698928690231884218D0AA78A11901305F
:100C2000286181F802210DE04046D8F80000FB2839
:100C30000AD2A978A01980F80211701C02D1288963
:100C4000143028810136DBE700202861BDE8F0413F
:100C5000FFF7F2BCA4010020FEFEFFFF2DE9FF47D5
:100C600007AF06460420904691FBF0F4072000EB06
:100C7000840020F00700ADEB0005AD462846214674
:100C8000FFF706FB0020A04205DA56F8201045F8D1
:100C900020100130F7E747F8104CFFF731FE5FEA0C
:100CA000885002D14046FFF71DFE002047F8140C83
:100CB00047F8180C57F8180C57F8101C884210D237
:100CC00057F8180C57F8181C55F8211008EB80003D
:100CD000FFF722FE3420FFF7D9FD57F8180C01303A
:100CE000E6E7A7F10C04A546BDE8F047FFF7D2BD43
:100CF00080B5074801880131018000F099F8054866
:100D00000921083000F008F8BDE8804000F084B800
:100D1000A60200200000002070B50C460546002603
:100D2000A642A8BF70BDA85D00F060F83420FFF7B0
:100D3000A3FD0136F4E780B500F07AF8302000F02A
:100D400055F8BDE8804000F067B880B500F070F855
:100D5000C12000F04BF8BDE8804000F05DB880B5E0
:100D600000F066F8C22000F041F8BDE8804000F0D5
:100D700053B8000070B51A4C00201B4D44F6216199
:100D8000A07018482A68D20605D402688A42F9D3AE
:100D90006520208170BD21782A68D20605D50268B9
:100DA000FB2AF9D30029F7D070BD1A20FFF764FDA4
:100DB0000026082E0BD03420FFF75EFDA0782968AE
:100DC000C1F30011B14001360843A070F1E71A20C9
:100DD000FFF752FD01202070A078A07170BD00BF08
:100DE0007800002024040040080C0140F8B5144DA0
:100DF0001026044600276E603420FFF73DFD072FC4
:100E000006D8E0070CBF6E602E6064080137F3E778
:100E100010202860F8BD00BF10B50020042110226A
:100E20000024FFF7DFFD0148046010BDA001002091
:100E3000034810211022016010200421FFF7D2BDC9
:100E4000100C014070B5264D264CFFF7EDFB022833
:100E500008D0D0BB206D800537D5E06A800148BF3F
:100E6000224D32E02068A16AC0F3004000290BD473
:100E700021682268C2F34172C1F383410AB90F2984
:100E800018D11201013216E0A16AA26AA36A164EB5
:100E9000C1F30311C2F3082203F0070318B120685D
:100EA000800358BF2E4601FA03F006FB02F1B1FBA6
:100EB000F0F50AE00222114420B12068800301D439
:100EC0004D4302E0084801FB00F5094809A205600E
:100ED0002168C1F30311515C25FA01F1016070BD75
:100EE00000127A000410024000093D00006CDC0290
:100EF00014000020000000000000000001020304B4
:100F000006070809280F000800000020180000004C
:100F1000AC010008400F00081800002090080000F5
:100F2000C8010008000000001400000001000000DB
:100F3000343731001F0606013000000000127A002D
:04000005080001717D
:00000001FF
