:020000040800F2
:10000000B00800200D0200085F0300085B03000831
:100010005D030008570300081D04000800000000ED
:10002000000000000000000000000000AD03000818
:100030005903000800000000AB030008AF030008EC
:1000400027020008270200082702000827020008EC
:1000500027020008270200082702000827020008DC
:1000600027020008270200082702000827020008CC
:1000700027020008270200082702000827020008BC
:1000800027020008270200082702000827020008AC
:10009000270200082702000827020008270200089C
:1000A000270200082702000827020008270200088C
:1000B000270200082702000827020008270200087C
:1000C000270200082702000827020008270200086C
:1000D000270200082702000827020008270200085C
:1000E000270200082702000827020008000000007D
:1000F0000000000000000000000000000000000000
:10010000000000002702000827020008000000008D
:10011000270200082702000800000000000000007D
:10012000270200082702000827020008270200080B
:1001300000000000000000000000000000000000BF
:10014000000000000000000000000000270200087E
:10015000000000000000000027020008270200083D
:10016000000000000000000000000000270200085E
:1001700000F002F800F03AF80AA090E8000C82447F
:100180008344AAF10107DA4501D100F02FF8AFF25C
:10019000090EBAE80F0013F0010F18BFFB1A43F065
:1001A000010318476C0D00008C0D0000103A24BFAD
:1001B00078C878C1FAD8520724BF30C830C144BFCC
:1001C00004680C607047000000230024002500260E
:1001D000103A28BF78C1FBD8520728BF30C148BFAA
:1001E0000B6070471FB51FBD10B510BD00F07AF849
:1001F0001146FFF7F7FF00F03FFC00F098F803B45A
:10020000FFF7F2FF03BC00F09FF8000009488047A9
:1002100009480047FEE7FEE7FEE7FEE7FEE7FEE7E8
:10022000FEE7FEE7FEE7FEE704480549054A064B00
:1002300070470000B103000871010008B0020020FF
:10024000B0080020B0040020B00400204FF00002ED
:100250000429C0F0128010F0030C00F01B80CCF1D8
:10026000040CBCF1020F18BF00F8012BA8BF20F846
:10027000022BA1EB0C0100F00DB85FEAC17C24BF9A
:1002800000F8012B00F8012B48BF00F8012B704744
:100290004FF0000200B5134694469646203922BF1F
:1002A000A0E80C50A0E80C50B1F12001BFF4F7AF6A
:1002B000090728BFA0E80C5048BF0CC05DF804EB4C
:1002C000890028BF40F8042B08BF704748BF20F8BA
:1002D000022B11F0804F18BF00F8012B70477047B8
:1002E00070477047754600F02BF8AE46050069462A
:1002F000534620F00700854618B020B5FFF794FF5D
:10030000BDE820404FF000064FF000074FF0000816
:100310004FF0000BAC46ACE8C009ACE8C009ACE853
:10032000C009ACE8C00921F007018D46704710B53F
:100330000446AFF300802046BDE81040FFF75FBFE2
:10034000004870471800002001491820ABBEFEE7A6
:10035000260002007047FEE77047FEE7FEE77047A1
:100360004FF4FA704FF4FA7600F080BA206840F04B
:10037000400020604FF0804000F0A0BAF08120469D
:1003800000F04EB84FF4801000F098BA0020182109
:10039000102200F021BB216821F00101216010BD75
:1003A000226842F001022260704770477047704730
:1003B0009948C16941F08051C16116490A7842F0FB
:1003C00004020A70C16921F08051C161016841F0E5
:1003D0000101016001688907FCD5416821F0030132
:1003E0004160416811F00C0FFBD101688B4A11404C
:1003F00001600021416041F61071C1624FF480112B
:1004000001634FF41F01816003484FF000610160F8
:10041000704700BF5070004008ED00E0FEE70000AC
:10042000B0B54218445C557800F0B8FB0448017937
:100430004079684061400843B0FA80F04009B0BD9F
:100440007800002070B5FFF7A1FFFFF789FF164C79
:10045000164D56B12068C00602D428880130288085
:100460000A2000F003FA013EF3E72888D0B100200B
:10047000042110222880002000F0AEFAFFF770FF60
:1004800056B12068C00602D42888013028800A208E
:1004900000F0ECF9013EF3E7288818B1BDE87040A0
:1004A00000F0CCBA70BD00BF080C0140A0000020D5
:1004B000614900F00F000A6822F0F00242EA0010E1
:1004C000086070475C4900F007000A6822F4E062A7
:1004D00042EA002008607047574900F007000A68A8
:1004E00022F4605242EAC0200860704704490128A3
:1004F0000A6822F0300208BF30320A60704700BF3D
:1005000054100240042828D8DFE800F00309121C28
:1005100022004148026861F300020260704701F066
:1005200001003D490A6822F4803242EA004007E0B7
:1005300001F0010038490A6822F0807242EA006046
:10054000086070473448026A61F300020262704733
:100550003148426A61F30002426270472E4A010C40
:1005600000F01F00895821FA00F000F001007047E8
:1005700000F01F020123000C9340274A01298158F3
:1005800014BF994319438150704700BF2A4A13682A
:1005900068B143F4803301281360136807BF23F464
:1005A00000334FF0007043F40033002002E023F4E6
:1005B000803300201360136861F39543C1F3021187
:1005C0001360136861F35E731360916A21F0E06158
:1005D00008439062704700BF0F48016841F0010175
:1005E000016001688907FCD5416821F00301416081
:1005F000416811F00C0FFBD10168084A11400160FD
:100600000021416041F61071C1624FF48011016315
:100610004FF41F018160704700100240FFFFF2FE9F
:1006200005490A6860F301020A60704702480068E1
:10063000C0F38100704700BF041002402DE9F84F5D
:1006400004AF864EF078D8B1854CB1892046F1814F
:10065000FFF7E6FE002800F0F080824D4FF4807135
:100660002846FFF715FEF08928B114F8011B013860
:1006700005F8011BF8E700F064FB0020F07025E0AE
:10068000774C217C20787D29B06106D1207A0D2815
:100690001CD1607A422815D018E0217D7D2905D132
:1006A000217B0D2902D1617B42290BD094F82810BF
:1006B0007D2910D194F820100D290CD194F8211027
:1006C000422908D100F01CFB00202075A7F10C0482
:1006D000A546BDE8F08F6178A278E3780143114325
:1006E000194319D0411E032927D9FD283AD0FE28E5
:1006F00046D0FF2812D15A4C04200421FFF73EFEB9
:10070000002800F09A80002030816088000400BA40
:1007100000F10060706253E06520308100F08EFBD4
:10072000C12000F069FB308901303081A7F10C0451
:10073000A546BDE8F04F00F075BBDFE801F00235DB
:10074000488502200221F0814548FFF769FE002814
:1007500073D0726A4448824279D9B189414800F025
:1007600085FA2DE002200221F0813D48FFF758FE76
:10077000002862D000F062FBC12000F03DFBD5E70D
:10078000374C04200421FFF7F9FD002855D04FF421
:100790008070E17830820120F070A078012808BFD5
:1007A0004FF48071B181C1E702200221F0812C4811
:1007B000FFF736FE002840D0706A2B49884246D9A0
:1007C000A7F10C04A546BDE8F04F00F0BABA244CDE
:1007D00002200221FFF7D2FD78B3802064783082B6
:1007E00070690130706100F029FB002C08BF4FF4E4
:1007F000807404F10A00E94620F00700ADEB000523
:10080000AD4604F1030828464146FFF71FFD716A13
:100810002846224600F0E2F92846214600F0BEF9BB
:10082000B08830212853281981702846414600F0AD
:1008300079FA00F0F7FACD4648E7A7F10C04A5468F
:10084000BDE8F04F00F091BA0120707066E7A7F1A3
:100850000C04A546BDE8F04F00F07DBA78000020FA
:10086000A8010020A4000020FF0F00080349002277
:100870000A600A688242FCD3704700BF240400402B
:100880000D490860704700BF2548016841F08001AC
:100890000160704708480168C9071CBF0020704705
:1008A0000168490744BF012070470068C0064FF047
:1008B000020058BF032070470C20024010B50446C8
:1008C000FFF7E8FF1CB1010601D1013CF8E7002C5D
:1008D00008BF0420C0B210BD10B5114C216841F012
:1008E000020121606060FFF741FD216821F00201F3
:1008F000216010BD0248034901600349016070474F
:100900000420024023016745AB89EFCD10B5044CAC
:10091000FFF746FD0160FFF735FDFFF73CBD00BF67
:10092000102002409C4A4FF6FF71C0E90012704748
:10093000F0B58B790A88032B0AD05BB9497928294D
:1009400013D0182912BF01F00F01026108210EE037
:1009500000210CE00C79C97903F0080304F00404C9
:1009600001F003012344194401E042610821130608
:1009700016D000230F240025082D11D022FA05F6E9
:10098000F6070AD0076804FA03F627EA06060660A7
:1009900001FA03F607683E43066004330135EBE7CE
:1009A000B2F5807F17D3120A00230F240025082DEB
:1009B00011D022FA05F6F6070AD0476804FA03F6C2
:1009C00027EA0606466001FA03F647683E4346609A
:1009D00004330135EBE7F0BDFEB501AF0646144622
:1009E0000D463846FFF79EFF044839468DF80A60E9
:1009F00001948DF80950FFF79BFFFEBD000C0140EC
:100A000070B5C0F30725C0F307424FF0FF3355FA26
:100A1000A0F503FA02F4C5F12005EB40064D234092
:100A2000040EC0B266599040002926EA030318BF9D
:100A30000343635170BD00BF000001400C49EFF358
:100A4000108072B6E9484A68C2610A4A1278012ADF
:100A50001EBF0021018170474C4A136823F0010337
:100A60001360C2690262096881F30888006A00475E
:100A700000100008007C000882B04048FFF76EFDBF
:100A8000012818BFFFF7DAFFA54D02204FF4AA7125
:100A90006860032068603A480160FFF79DFD002010
:100AA0000121FFF72FFD0120FFF758FD0128FAD1A2
:100AB00000202321FFF76AFD02200121FFF722FD1C
:100AC0001920FFF74BFD0128FAD10020FFF7F0FCB9
:100AD0000420FFF701FD0420FFF7F4FC0120FFF7DD
:100AE00005FD0220FFF79CFDFFF7A0FD0228FBD1CA
:100AF0000020FFF7FBFC00F0ABF92248224C01215B
:100B0000A047224E95200121B0624FF6FF70F0629F
:100B1000706940F001007061306840F001003060A1
:100B20001B48A0474FF4C0100121A04719480121DC
:100B3000FFF766FF6C462046FFF7F4FE10202146C3
:100B400000901548019006F58430FFF7F1FEFFF79D
:100B500079FCFFF71BFC2878E87200F06FF900F0D1
:100B600061F9A24C686870636089B06300F040F876
:100B70002089C928F6D3FFF761FFF3E71C002400A2
:100B80000020024001001C00710500080004004024
:100B9000030018000203103000040001F0B50E4AF3
:100BA0000024002500238B4212D0C55C0026082EAD
:100BB0000AD2C4F34E076C40E40718BF5740ECB2AA
:100BC000013665083C46F2E7A5B201332D0AEAE793
:100BD000864845710471F0BD01A0FFFF10B50023E8
:100BE0009342A8BF10BDCC5CC4540133F8E70000A9
:100BF0002DE9F0417D4D1B4C00204FF48171287090
:100C000068612046FFF744FB7948174E444F804601
:100C100026B300F0B5F8786801307860E87858B10C
:100C2000A98968690231884218D0AA78A1190130CF
:100C3000686181F802210DE04046D8F80000FB28E9
:100C40000AD2A978A01980F80211701C02D1288953
:100C5000143028810136DBE700206861BDE8F041EF
:100C6000FFF7ECBCA8010020FEFEFFFF2DE9FF47C7
:100C700007AF06460420904691FBF0F4072000EBF6
:100C8000840020F00700ADEB0005AD462846214664
:100C9000FFF7FEFA0020A04205DA56F8201045F8CA
:100CA00020100130F7E747F8104CFFF723FE5FEA0A
:100CB000885002D14046FFF70FFE002047F8140C81
:100CC00047F8180C57F8180C57F8101C884210D227
:100CD00057F8180C57F8181C55F8211008EB80002D
:100CE000FFF714FE3420FFF7CBFD57F8180C013046
:100CF000E6E7A7F10C04A546BDE8F047FFF7C4BD41
:100D000080B53A4841890131418100F097F80448A3
:100D10000921083000F006F8BDE8804000F082B8F4
:100D20000000002070B50C4605460026A642A8BF6C
:100D300070BDA85D00F060F83420FFF797FD013624
:100D4000F4E780B500F07AF8302000F055F8BDE8FF
:100D5000804000F067B880B500F070F8C12000F066
:100D60004BF8BDE8804000F05DB880B500F066F853
:100D7000C22000F041F8BDE8804000F053B8000008
:100D800070B51A4C00201B4D44F62161A070184824
:100D90002A68D20606D402688A42F9D340F2E930C2
:100DA000208170BD21782A68D20605D50268FB2A09
:100DB000F9D30029F7D070BD1A20FFF757FD0026A0
:100DC000082E0BD03420FFF751FDA0782968C1F31D
:100DD0000011B14001360843A070F1E71A20FFF777
:100DE00045FD01202070A078A07170BD7800002022
:100DF00024040040080C0140F8B5144D10260446A8
:100E000000276E603420FFF731FD072F06D8E0077A
:100E10000CBF6E602E6064080137F3E71020286075
:100E2000F8BD00BF10B50020042110220024FFF7F8
:100E3000D3FD0148046010BDA40100200348102127
:100E40001022016010200421FFF7C6BD100C0140E4
:100E500070B5264D264CFFF7E9FB022808D0D0BB21
:100E6000206D800537D5E06A800148BF224D32E011
:100E70002068A16AC0F3004000290BD421682268D1
:100E8000C2F34172C1F383410AB90F2918D112018B
:100E9000013216E0A16AA26AA36A164EC1F30311D9
:100EA000C2F3082203F0070318B12068800358BF7B
:100EB0002E4601FA03F006FB02F1B1FBF0F50AE061
:100EC0000222114420B12068800301D44D4302E086
:100ED000084801FB00F5094809A205602168C1F333
:100EE0000311515C25FA01F1016070BD00127A0016
:100EF0000410024000093D00006CDC0214000020D8
:100F000000000000000000000102030406070809B9
:100F1000300F00080000002018000000AC0100089D
:100F2000480F00081800002098080000C8010008B9
:100F30001400000001000000343731001F060601D4
:080F40003000000000127A00ED
:04000005080001717D
:00000001FF
